{
  "contractName": "SolnSquareVerifier",
  "abi": [
    {
      "inputs": [
        {
          "internalType": "address",
          "name": "verifierAddress",
          "type": "address"
        }
      ],
      "stateMutability": "nonpayable",
      "type": "constructor"
    },
    {
      "anonymous": false,
      "inputs": [
        {
          "indexed": false,
          "internalType": "uint256",
          "name": "index",
          "type": "uint256"
        },
        {
          "indexed": false,
          "internalType": "address",
          "name": "to",
          "type": "address"
        }
      ],
      "name": "AddSolution",
      "type": "event"
    },
    {
      "anonymous": false,
      "inputs": [
        {
          "indexed": true,
          "internalType": "address",
          "name": "owner",
          "type": "address"
        },
        {
          "indexed": true,
          "internalType": "address",
          "name": "approved",
          "type": "address"
        },
        {
          "indexed": true,
          "internalType": "uint256",
          "name": "tokenId",
          "type": "uint256"
        }
      ],
      "name": "Approval",
      "type": "event"
    },
    {
      "anonymous": false,
      "inputs": [
        {
          "indexed": true,
          "internalType": "address",
          "name": "owner",
          "type": "address"
        },
        {
          "indexed": true,
          "internalType": "address",
          "name": "operator",
          "type": "address"
        },
        {
          "indexed": false,
          "internalType": "bool",
          "name": "approved",
          "type": "bool"
        }
      ],
      "name": "ApprovalForAll",
      "type": "event"
    },
    {
      "anonymous": false,
      "inputs": [
        {
          "indexed": false,
          "internalType": "address",
          "name": "_address",
          "type": "address"
        }
      ],
      "name": "Paused",
      "type": "event"
    },
    {
      "anonymous": false,
      "inputs": [
        {
          "indexed": true,
          "internalType": "address",
          "name": "from",
          "type": "address"
        },
        {
          "indexed": true,
          "internalType": "address",
          "name": "to",
          "type": "address"
        },
        {
          "indexed": true,
          "internalType": "uint256",
          "name": "tokenId",
          "type": "uint256"
        }
      ],
      "name": "Transfer",
      "type": "event"
    },
    {
      "anonymous": false,
      "inputs": [
        {
          "indexed": false,
          "internalType": "address",
          "name": "newOwner",
          "type": "address"
        }
      ],
      "name": "TransferingOwnership",
      "type": "event"
    },
    {
      "anonymous": false,
      "inputs": [
        {
          "indexed": false,
          "internalType": "address",
          "name": "_address",
          "type": "address"
        }
      ],
      "name": "UnPaused",
      "type": "event"
    },
    {
      "inputs": [],
      "name": "_squareVerifier",
      "outputs": [
        {
          "internalType": "contract SquareVerifier",
          "name": "",
          "type": "address"
        }
      ],
      "stateMutability": "view",
      "type": "function"
    },
    {
      "inputs": [
        {
          "internalType": "address",
          "name": "to",
          "type": "address"
        },
        {
          "internalType": "uint256",
          "name": "tokenId",
          "type": "uint256"
        }
      ],
      "name": "approve",
      "outputs": [],
      "stateMutability": "nonpayable",
      "type": "function"
    },
    {
      "inputs": [
        {
          "internalType": "address",
          "name": "owner",
          "type": "address"
        }
      ],
      "name": "balanceOf",
      "outputs": [
        {
          "internalType": "uint256",
          "name": "",
          "type": "uint256"
        }
      ],
      "stateMutability": "view",
      "type": "function"
    },
    {
      "inputs": [
        {
          "internalType": "uint256",
          "name": "tokenId",
          "type": "uint256"
        }
      ],
      "name": "getApproved",
      "outputs": [
        {
          "internalType": "address",
          "name": "",
          "type": "address"
        }
      ],
      "stateMutability": "view",
      "type": "function"
    },
    {
      "inputs": [],
      "name": "getBaseTokenURI",
      "outputs": [
        {
          "internalType": "string",
          "name": "",
          "type": "string"
        }
      ],
      "stateMutability": "view",
      "type": "function"
    },
    {
      "inputs": [],
      "name": "getName",
      "outputs": [
        {
          "internalType": "string",
          "name": "",
          "type": "string"
        }
      ],
      "stateMutability": "view",
      "type": "function"
    },
    {
      "inputs": [],
      "name": "getOwner",
      "outputs": [
        {
          "internalType": "address",
          "name": "",
          "type": "address"
        }
      ],
      "stateMutability": "view",
      "type": "function"
    },
    {
      "inputs": [],
      "name": "getSymbol",
      "outputs": [
        {
          "internalType": "string",
          "name": "",
          "type": "string"
        }
      ],
      "stateMutability": "view",
      "type": "function"
    },
    {
      "inputs": [
        {
          "internalType": "uint256",
          "name": "tokenId",
          "type": "uint256"
        }
      ],
      "name": "getTokenURI",
      "outputs": [
        {
          "internalType": "string",
          "name": "",
          "type": "string"
        }
      ],
      "stateMutability": "view",
      "type": "function"
    },
    {
      "inputs": [
        {
          "internalType": "address",
          "name": "owner",
          "type": "address"
        },
        {
          "internalType": "address",
          "name": "operator",
          "type": "address"
        }
      ],
      "name": "isApprovedForAll",
      "outputs": [
        {
          "internalType": "bool",
          "name": "",
          "type": "bool"
        }
      ],
      "stateMutability": "view",
      "type": "function"
    },
    {
      "inputs": [
        {
          "internalType": "address",
          "name": "_address",
          "type": "address"
        }
      ],
      "name": "isValidAddress",
      "outputs": [
        {
          "internalType": "bool",
          "name": "",
          "type": "bool"
        }
      ],
      "stateMutability": "pure",
      "type": "function"
    },
    {
      "inputs": [
        {
          "internalType": "address",
          "name": "to",
          "type": "address"
        },
        {
          "internalType": "uint256",
          "name": "tokenId",
          "type": "uint256"
        }
      ],
      "name": "mint",
      "outputs": [
        {
          "internalType": "bool",
          "name": "",
          "type": "bool"
        }
      ],
      "stateMutability": "nonpayable",
      "type": "function"
    },
    {
      "inputs": [
        {
          "internalType": "uint256",
          "name": "tokenId",
          "type": "uint256"
        }
      ],
      "name": "ownerOf",
      "outputs": [
        {
          "internalType": "address",
          "name": "",
          "type": "address"
        }
      ],
      "stateMutability": "view",
      "type": "function"
    },
    {
      "inputs": [
        {
          "internalType": "address",
          "name": "from",
          "type": "address"
        },
        {
          "internalType": "address",
          "name": "to",
          "type": "address"
        },
        {
          "internalType": "uint256",
          "name": "tokenId",
          "type": "uint256"
        }
      ],
      "name": "safeTransferFrom",
      "outputs": [],
      "stateMutability": "nonpayable",
      "type": "function"
    },
    {
      "inputs": [
        {
          "internalType": "address",
          "name": "from",
          "type": "address"
        },
        {
          "internalType": "address",
          "name": "to",
          "type": "address"
        },
        {
          "internalType": "uint256",
          "name": "tokenId",
          "type": "uint256"
        },
        {
          "internalType": "bytes",
          "name": "_data",
          "type": "bytes"
        }
      ],
      "name": "safeTransferFrom",
      "outputs": [],
      "stateMutability": "nonpayable",
      "type": "function"
    },
    {
      "inputs": [
        {
          "internalType": "address",
          "name": "to",
          "type": "address"
        },
        {
          "internalType": "bool",
          "name": "approved",
          "type": "bool"
        }
      ],
      "name": "setApprovalForAll",
      "outputs": [],
      "stateMutability": "nonpayable",
      "type": "function"
    },
    {
      "inputs": [
        {
          "internalType": "bool",
          "name": "isPaused",
          "type": "bool"
        }
      ],
      "name": "setPaused",
      "outputs": [],
      "stateMutability": "view",
      "type": "function"
    },
    {
      "inputs": [
        {
          "internalType": "bytes4",
          "name": "interfaceId",
          "type": "bytes4"
        }
      ],
      "name": "supportsInterface",
      "outputs": [
        {
          "internalType": "bool",
          "name": "",
          "type": "bool"
        }
      ],
      "stateMutability": "view",
      "type": "function"
    },
    {
      "inputs": [
        {
          "internalType": "uint256",
          "name": "index",
          "type": "uint256"
        }
      ],
      "name": "tokenByIndex",
      "outputs": [
        {
          "internalType": "uint256",
          "name": "",
          "type": "uint256"
        }
      ],
      "stateMutability": "view",
      "type": "function"
    },
    {
      "inputs": [
        {
          "internalType": "address",
          "name": "owner",
          "type": "address"
        },
        {
          "internalType": "uint256",
          "name": "index",
          "type": "uint256"
        }
      ],
      "name": "tokenOfOwnerByIndex",
      "outputs": [
        {
          "internalType": "uint256",
          "name": "",
          "type": "uint256"
        }
      ],
      "stateMutability": "view",
      "type": "function"
    },
    {
      "inputs": [],
      "name": "totalSupply",
      "outputs": [
        {
          "internalType": "uint256",
          "name": "",
          "type": "uint256"
        }
      ],
      "stateMutability": "view",
      "type": "function"
    },
    {
      "inputs": [
        {
          "internalType": "address",
          "name": "from",
          "type": "address"
        },
        {
          "internalType": "address",
          "name": "to",
          "type": "address"
        },
        {
          "internalType": "uint256",
          "name": "tokenId",
          "type": "uint256"
        }
      ],
      "name": "transferFrom",
      "outputs": [],
      "stateMutability": "nonpayable",
      "type": "function"
    },
    {
      "inputs": [
        {
          "internalType": "address",
          "name": "newOwner",
          "type": "address"
        }
      ],
      "name": "transferOwnership",
      "outputs": [],
      "stateMutability": "nonpayable",
      "type": "function"
    },
    {
      "inputs": [
        {
          "components": [
            {
              "components": [
                {
                  "internalType": "uint256",
                  "name": "X",
                  "type": "uint256"
                },
                {
                  "internalType": "uint256",
                  "name": "Y",
                  "type": "uint256"
                }
              ],
              "internalType": "struct Pairing.G1Point",
              "name": "a",
              "type": "tuple"
            },
            {
              "components": [
                {
                  "internalType": "uint256[2]",
                  "name": "X",
                  "type": "uint256[2]"
                },
                {
                  "internalType": "uint256[2]",
                  "name": "Y",
                  "type": "uint256[2]"
                }
              ],
              "internalType": "struct Pairing.G2Point",
              "name": "b",
              "type": "tuple"
            },
            {
              "components": [
                {
                  "internalType": "uint256",
                  "name": "X",
                  "type": "uint256"
                },
                {
                  "internalType": "uint256",
                  "name": "Y",
                  "type": "uint256"
                }
              ],
              "internalType": "struct Pairing.G1Point",
              "name": "c",
              "type": "tuple"
            }
          ],
          "internalType": "struct Verifier.Proof",
          "name": "proof",
          "type": "tuple"
        },
        {
          "internalType": "uint256[1]",
          "name": "input",
          "type": "uint256[1]"
        }
      ],
      "name": "verifyTx",
      "outputs": [
        {
          "internalType": "bool",
          "name": "r",
          "type": "bool"
        }
      ],
      "stateMutability": "view",
      "type": "function"
    },
    {
      "inputs": [
        {
          "internalType": "uint256",
          "name": "_index",
          "type": "uint256"
        },
        {
          "internalType": "address",
          "name": "_to",
          "type": "address"
        }
      ],
      "name": "addSolutions",
      "outputs": [],
      "stateMutability": "nonpayable",
      "type": "function"
    },
    {
      "inputs": [
        {
          "internalType": "uint256",
          "name": "Id",
          "type": "uint256"
        },
        {
          "components": [
            {
              "components": [
                {
                  "internalType": "uint256",
                  "name": "X",
                  "type": "uint256"
                },
                {
                  "internalType": "uint256",
                  "name": "Y",
                  "type": "uint256"
                }
              ],
              "internalType": "struct Pairing.G1Point",
              "name": "a",
              "type": "tuple"
            },
            {
              "components": [
                {
                  "internalType": "uint256[2]",
                  "name": "X",
                  "type": "uint256[2]"
                },
                {
                  "internalType": "uint256[2]",
                  "name": "Y",
                  "type": "uint256[2]"
                }
              ],
              "internalType": "struct Pairing.G2Point",
              "name": "b",
              "type": "tuple"
            },
            {
              "components": [
                {
                  "internalType": "uint256",
                  "name": "X",
                  "type": "uint256"
                },
                {
                  "internalType": "uint256",
                  "name": "Y",
                  "type": "uint256"
                }
              ],
              "internalType": "struct Pairing.G1Point",
              "name": "c",
              "type": "tuple"
            }
          ],
          "internalType": "struct Verifier.Proof",
          "name": "proof",
          "type": "tuple"
        },
        {
          "internalType": "uint256[1]",
          "name": "inputs",
          "type": "uint256[1]"
        }
      ],
      "name": "mintNewNFT",
      "outputs": [
        {
          "internalType": "bool",
          "name": "",
          "type": "bool"
        }
      ],
      "stateMutability": "nonpayable",
      "type": "function"
    }
  ],
  "bytecode": "0x60806040523480156200001157600080fd5b50604051620051d6380380620051d6833981810160405281019062000037919062000301565b6040518060400160405280600d81526020017f4d7920437573746f6d20455243000000000000000000000000000000000000008152506040518060400160405280600481526020017f74756e6f000000000000000000000000000000000000000000000000000000008152506040518060600160405280603f815260200162005197603f9139336000806101000a81548173ffffffffffffffffffffffffffffffffffffffff021916908373ffffffffffffffffffffffffffffffffffffffff16021790555060008060146101000a81548160ff0219169083151502179055506200012f6301ffc9a760e01b620001f860201b60201c565b620001476380ac58cd60e01b620001f860201b60201c565b6200015f63780e9d6360e01b620001f860201b60201c565b82600f9081620001709190620005ad565b508160109081620001829190620005ad565b508060119081620001949190620005ad565b50620001ad635b5e139f60e01b620001f860201b60201c565b50505080601360006101000a81548173ffffffffffffffffffffffffffffffffffffffff021916908373ffffffffffffffffffffffffffffffffffffffff1602179055505062000694565b63ffffffff60e01b817bffffffffffffffffffffffffffffffffffffffffffffffffffffffff1916036200022b57600080fd5b6001806000837bffffffffffffffffffffffffffffffffffffffffffffffffffffffff19167bffffffffffffffffffffffffffffffffffffffffffffffffffffffff1916815260200190815260200160002060006101000a81548160ff02191690831515021790555050565b600080fd5b600073ffffffffffffffffffffffffffffffffffffffff82169050919050565b6000620002c9826200029c565b9050919050565b620002db81620002bc565b8114620002e757600080fd5b50565b600081519050620002fb81620002d0565b92915050565b6000602082840312156200031a576200031962000297565b5b60006200032a84828501620002ea565b91505092915050565b600081519050919050565b7f4e487b7100000000000000000000000000000000000000000000000000000000600052604160045260246000fd5b7f4e487b7100000000000000000000000000000000000000000000000000000000600052602260045260246000fd5b60006002820490506001821680620003b557607f821691505b602082108103620003cb57620003ca6200036d565b5b50919050565b60008190508160005260206000209050919050565b60006020601f8301049050919050565b600082821b905092915050565b600060088302620004357fffffffffffffffffffffffffffffffffffffffffffffffffffffffffffffffff82620003f6565b620004418683620003f6565b95508019841693508086168417925050509392505050565b6000819050919050565b6000819050919050565b60006200048e62000488620004828462000459565b62000463565b62000459565b9050919050565b6000819050919050565b620004aa836200046d565b620004c2620004b98262000495565b84845462000403565b825550505050565b600090565b620004d9620004ca565b620004e68184846200049f565b505050565b5b818110156200050e5762000502600082620004cf565b600181019050620004ec565b5050565b601f8211156200055d576200052781620003d1565b6200053284620003e6565b8101602085101562000542578190505b6200055a6200055185620003e6565b830182620004eb565b50505b505050565b600082821c905092915050565b6000620005826000198460080262000562565b1980831691505092915050565b60006200059d83836200056f565b9150826002028217905092915050565b620005b88262000333565b67ffffffffffffffff811115620005d457620005d36200033e565b5b620005e082546200039c565b620005ed82828562000512565b600060209050601f83116001811462000625576000841562000610578287015190505b6200061c85826200058f565b8655506200068c565b601f1984166200063586620003d1565b60005b828110156200065f5784890151825560018201915060208501945060208101905062000638565b868310156200067f57848901516200067b601f8916826200056f565b8355505b6001600288020188555050505b505050505050565b614af380620006a46000396000f3fe608060405234801561001057600080fd5b506004361061018d5760003560e01c80634f6ccce7116100de578063b88d4fde11610097578063e985e9c511610071578063e985e9c5146104cc578063f01f1441146104fc578063f2fde38b1461051a578063f48d7729146105365761018d565b8063b88d4fde14610476578063bdc32be014610492578063d2120c50146104b05761018d565b80634f6ccce71461037c5780636352211e146103ac57806370a08231146103dc578063893d20e81461040c5780638a93e4df1461042a578063a22cb4651461045a5761018d565b806317d7de7c1161014b5780632f745c59116101255780632f745c59146102d05780633bb3a24d1461030057806340c10f191461033057806342842e0e146103605761018d565b806317d7de7c1461027857806318160ddd1461029657806323b872dd146102b45761018d565b80623f07fa1461019257806301ffc9a7146101c2578063081812fc146101f2578063095ea7b314610222578063150704011461023e57806316c38b3c1461025c575b600080fd5b6101ac60048036038101906101a7919061335c565b610566565b6040516101b991906133a4565b60405180910390f35b6101dc60048036038101906101d79190613417565b61059f565b6040516101e991906133a4565b60405180910390f35b61020c6004803603810190610207919061347a565b610607565b60405161021991906134b6565b60405180910390f35b61023c600480360381019061023791906134d1565b610644565b005b610246610845565b60405161025391906135a1565b60405180910390f35b610276600480360381019061027191906135ef565b6108d7565b005b6102806109cf565b60405161028d91906135a1565b60405180910390f35b61029e610a61565b6040516102ab919061362b565b60405180910390f35b6102ce60048036038101906102c99190613646565b610a6e565b005b6102ea60048036038101906102e591906134d1565b610a91565b6040516102f7919061362b565b60405180910390f35b61031a6004803603810190610315919061347a565b610b0b565b60405161032791906135a1565b60405180910390f35b61034a600480360381019061034591906134d1565b610bc2565b60405161035791906133a4565b60405180910390f35b61037a60048036038101906103759190613646565b610c70565b005b6103966004803603810190610391919061347a565b610c90565b6040516103a3919061362b565b60405180910390f35b6103c660048036038101906103c1919061347a565b610ccb565b6040516103d391906134b6565b60405180910390f35b6103f660048036038101906103f1919061335c565b610d08565b604051610403919061362b565b60405180910390f35b610414610d54565b60405161042191906134b6565b60405180910390f35b610444600480360381019061043f919061398a565b610d7d565b60405161045191906133a4565b60405180910390f35b610474600480360381019061046f91906139df565b610e79565b005b610490600480360381019061048b9190613ad4565b610fae565b005b61049a610fd4565b6040516104a791906135a1565b60405180910390f35b6104ca60048036038101906104c59190613b57565b611066565b005b6104e660048036038101906104e19190613b97565b611152565b6040516104f391906133a4565b60405180910390f35b6105046111e6565b6040516105119190613c36565b60405180910390f35b610534600480360381019061052f919061335c565b61120c565b005b610550600480360381019061054b9190613c51565b61135c565b60405161055d91906133a4565b60405180910390f35b60008073ffffffffffffffffffffffffffffffffffffffff168273ffffffffffffffffffffffffffffffffffffffff1614159050919050565b600060016000837bffffffffffffffffffffffffffffffffffffffffffffffffffffffff19167bffffffffffffffffffffffffffffffffffffffffffffffffffffffff1916815260200190815260200160002060009054906101000a900460ff169050919050565b60006003600083815260200190815260200160002060009054906101000a900473ffffffffffffffffffffffffffffffffffffffff169050919050565b6002600082815260200190815260200160002060009054906101000a900473ffffffffffffffffffffffffffffffffffffffff1673ffffffffffffffffffffffffffffffffffffffff168273ffffffffffffffffffffffffffffffffffffffff16036106e5576040517f08c379a00000000000000000000000000000000000000000000000000000000081526004016106dc90613d05565b60405180910390fd5b610722336002600084815260200190815260200160002060009054906101000a900473ffffffffffffffffffffffffffffffffffffffff16611152565b610761576040517f08c379a000000000000000000000000000000000000000000000000000000000815260040161075890613dbd565b60405180910390fd5b816003600083815260200190815260200160002060006101000a81548173ffffffffffffffffffffffffffffffffffffffff021916908373ffffffffffffffffffffffffffffffffffffffff160217905550808273ffffffffffffffffffffffffffffffffffffffff166002600084815260200190815260200160002060009054906101000a900473ffffffffffffffffffffffffffffffffffffffff1673ffffffffffffffffffffffffffffffffffffffff167f8c5be1e5ebec7d5bd14f71427d1e84f3dd0314c0f7b2291e5b200ac8c7c3b92560405160405180910390a45050565b60606010805461085490613e0c565b80601f016020809104026020016040519081016040528092919081815260200182805461088090613e0c565b80156108cd5780601f106108a2576101008083540402835291602001916108cd565b820191906000526020600020905b8154815290600101906020018083116108b057829003601f168201915b5050505050905090565b60008054906101000a900473ffffffffffffffffffffffffffffffffffffffff1673ffffffffffffffffffffffffffffffffffffffff163373ffffffffffffffffffffffffffffffffffffffff1603610965576040517f08c379a000000000000000000000000000000000000000000000000000000000815260040161095c90613eaf565b60405180910390fd5b600060149054906101000a900460ff161515811515036109ba576040517f08c379a00000000000000000000000000000000000000000000000000000000081526004016109b190613f1b565b60405180910390fd5b600060149054906101000a900460ff16905050565b6060600f80546109de90613e0c565b80601f0160208091040260200160405190810160405280929190818152602001828054610a0a90613e0c565b8015610a575780601f10610a2c57610100808354040283529160200191610a57565b820191906000526020600020905b815481529060010190602001808311610a3a57829003601f168201915b5050505050905090565b6000600880549050905090565b610a783382611429565b610a8157600080fd5b610a8c8383836114be565b505050565b6000610a9c83610d08565b8210610aa757600080fd5b600660008473ffffffffffffffffffffffffffffffffffffffff1673ffffffffffffffffffffffffffffffffffffffff1681526020019081526020016000208281548110610af857610af7613f3b565b5b9060005260206000200154905092915050565b6060610b16826114e2565b610b1f57600080fd5b601260008381526020019081526020016000208054610b3d90613e0c565b80601f0160208091040260200160405190810160405280929190818152602001828054610b6990613e0c565b8015610bb65780601f10610b8b57610100808354040283529160200191610bb6565b820191906000526020600020905b815481529060010190602001808311610b9957829003601f168201915b50505050509050919050565b60008060009054906101000a900473ffffffffffffffffffffffffffffffffffffffff1673ffffffffffffffffffffffffffffffffffffffff163373ffffffffffffffffffffffffffffffffffffffff1603610c53576040517f08c379a0000000000000000000000000000000000000000000000000000000008152600401610c4a90613eaf565b60405180910390fd5b610c5d8383611554565b610c6682611575565b6001905092915050565b610c8b83838360405180602001604052806000815250610fae565b505050565b6000610c9a610a61565b8210610ca557600080fd5b60088281548110610cb957610cb8613f3b565b5b90600052602060002001549050919050565b60006002600083815260200190815260200160002060009054906101000a900473ffffffffffffffffffffffffffffffffffffffff169050919050565b6000600460008373ffffffffffffffffffffffffffffffffffffffff1673ffffffffffffffffffffffffffffffffffffffff168152602001908152602001600020600001549050919050565b60008060009054906101000a900473ffffffffffffffffffffffffffffffffffffffff16905090565b6000601360009054906101000a900473ffffffffffffffffffffffffffffffffffffffff1673ffffffffffffffffffffffffffffffffffffffff1663f48d772984846040518363ffffffff1660e01b8152600401610ddc92919061413a565b602060405180830381865afa158015610df9573d6000803e3d6000fd5b505050506040513d601f19601f82011682018060405250810190610e1d919061417a565b610e5c576040517f08c379a0000000000000000000000000000000000000000000000000000000008152600401610e539061423f565b60405180910390fd5b610e668433611066565b610e703385610bc2565b90509392505050565b3373ffffffffffffffffffffffffffffffffffffffff168273ffffffffffffffffffffffffffffffffffffffff1603610eb157600080fd5b80600560003373ffffffffffffffffffffffffffffffffffffffff1673ffffffffffffffffffffffffffffffffffffffff16815260200190815260200160002060008473ffffffffffffffffffffffffffffffffffffffff1673ffffffffffffffffffffffffffffffffffffffff16815260200190815260200160002060006101000a81548160ff0219169083151502179055508173ffffffffffffffffffffffffffffffffffffffff163373ffffffffffffffffffffffffffffffffffffffff167f17307eab39ab6107e8899845ad3d59bd9653f200f220920489ca2b5937696c3183604051610fa291906133a4565b60405180910390a35050565b610fb9848484610a6e565b610fc584848484611688565b610fce57600080fd5b50505050565b606060118054610fe390613e0c565b80601f016020809104026020016040519081016040528092919081815260200182805461100f90613e0c565b801561105c5780601f106110315761010080835404028352916020019161105c565b820191906000526020600020905b81548152906001019060200180831161103f57829003601f168201915b5050505050905090565b600060405180604001604052808481526020018373ffffffffffffffffffffffffffffffffffffffff16815250905060148190806001815401808255809150506001900390600052602060002090600202016000909190919091506000820151816000015560208201518160010160006101000a81548173ffffffffffffffffffffffffffffffffffffffff021916908373ffffffffffffffffffffffffffffffffffffffff16021790555050507f62c6d8620a920840a8f50eee26fcf200a2398ec6c7d89da1fd52cd92b58d4cdd838360405161114592919061425f565b60405180910390a1505050565b6000600560008473ffffffffffffffffffffffffffffffffffffffff1673ffffffffffffffffffffffffffffffffffffffff16815260200190815260200160002060008373ffffffffffffffffffffffffffffffffffffffff1673ffffffffffffffffffffffffffffffffffffffff16815260200190815260200160002060009054906101000a900460ff16905092915050565b601360009054906101000a900473ffffffffffffffffffffffffffffffffffffffff1681565b60008054906101000a900473ffffffffffffffffffffffffffffffffffffffff1673ffffffffffffffffffffffffffffffffffffffff163373ffffffffffffffffffffffffffffffffffffffff160361129a576040517f08c379a000000000000000000000000000000000000000000000000000000000815260040161129190613eaf565b60405180910390fd5b6112a381610566565b6112e2576040517f08c379a00000000000000000000000000000000000000000000000000000000081526004016112d9906142d4565b60405180910390fd5b806000806101000a81548173ffffffffffffffffffffffffffffffffffffffff021916908373ffffffffffffffffffffffffffffffffffffffff1602179055507fc236f63a2e790a3b52fd1b5ae0a5a7db71490526a2dc1ac11f30f9308a974d128160405161135191906134b6565b60405180910390a150565b600080600167ffffffffffffffff81111561137a5761137961369e565b5b6040519080825280602002602001820160405280156113a85781602001602082028036833780820191505090505b50905060005b6001811015611401578381600181106113ca576113c9613f3b565b5b60200201518282815181106113e2576113e1613f3b565b5b60200260200101818152505080806113f990614323565b9150506113ae565b50600061140e8286611790565b0361141d576001915050611423565b60009150505b92915050565b60008061143583610ccb565b90508073ffffffffffffffffffffffffffffffffffffffff168473ffffffffffffffffffffffffffffffffffffffff1614806114a457508373ffffffffffffffffffffffffffffffffffffffff1661148c84610607565b73ffffffffffffffffffffffffffffffffffffffff16145b806114b557506114b48185611152565b5b91505092915050565b6114c9838383611927565b6114d38382611b59565b6114dd8282611d10565b505050565b6000806002600084815260200190815260200160002060009054906101000a900473ffffffffffffffffffffffffffffffffffffffff169050600073ffffffffffffffffffffffffffffffffffffffff168173ffffffffffffffffffffffffffffffffffffffff161415915050919050565b61155e8282611dd4565b6115688282611d10565b61157181611f5d565b5050565b61157e816114e2565b6115bd576040517f08c379a00000000000000000000000000000000000000000000000000000000081526004016115b4906143b7565b60405180910390fd5b60006115c882611fa6565b90506000611660601180546115dc90613e0c565b80601f016020809104026020016040519081016040528092919081815260200182805461160890613e0c565b80156116555780601f1061162a57610100808354040283529160200191611655565b820191906000526020600020905b81548152906001019060200180831161163857829003601f168201915b505050505083612115565b9050806012600085815260200190815260200160002090816116829190614579565b50505050565b60006116a98473ffffffffffffffffffffffffffffffffffffffff16612159565b6116b65760019050611788565b60008473ffffffffffffffffffffffffffffffffffffffff1663150b7a02338887876040518563ffffffff1660e01b81526004016116f794939291906146a0565b6020604051808303816000875af1158015611716573d6000803e3d6000fd5b505050506040513d601f19601f8201168201806040525081019061173a9190614701565b905063150b7a0260e01b7bffffffffffffffffffffffffffffffffffffffffffffffffffffffff1916817bffffffffffffffffffffffffffffffffffffffffffffffffffffffff1916149150505b949350505050565b6000807f30644e72e131a029b85045b68181585d2833e84879b9709143e1f593f0000001905060006117c061217c565b9050806080015151600186516117d6919061472e565b146117e057600080fd5b60006040518060400160405280600081526020016000815250905060005b8651811015611899578387828151811061181b5761181a613f3b565b5b60200260200101511061182d57600080fd5b6118848261187f8560800151600185611846919061472e565b8151811061185757611856613f3b565b5b60200260200101518a858151811061187257611871613f3b565b5b6020026020010151612580565b612622565b9150808061189190614323565b9150506117fe565b506118c38183608001516000815181106118b6576118b5613f3b565b5b6020026020010151612622565b9050611909856000015186602001516118db846126ea565b85604001516118ed8a604001516126ea565b87606001516118ff89600001516126ea565b896020015161278f565b6119195760019350505050611921565b600093505050505b92915050565b6002600082815260200190815260200160002060009054906101000a900473ffffffffffffffffffffffffffffffffffffffff1673ffffffffffffffffffffffffffffffffffffffff168373ffffffffffffffffffffffffffffffffffffffff16146119c8576040517f08c379a00000000000000000000000000000000000000000000000000000000081526004016119bf906147d4565b60405180910390fd5b6119d182610566565b611a10576040517f08c379a0000000000000000000000000000000000000000000000000000000008152600401611a0790614866565b60405180910390fd5b611a198161295c565b611a60600460008573ffffffffffffffffffffffffffffffffffffffff1673ffffffffffffffffffffffffffffffffffffffff168152602001908152602001600020612a1a565b611aa7600460008473ffffffffffffffffffffffffffffffffffffffff1673ffffffffffffffffffffffffffffffffffffffff168152602001908152602001600020612a3d565b816002600083815260200190815260200160002060006101000a81548173ffffffffffffffffffffffffffffffffffffffff021916908373ffffffffffffffffffffffffffffffffffffffff160217905550808273ffffffffffffffffffffffffffffffffffffffff168473ffffffffffffffffffffffffffffffffffffffff167fddf252ad1be2c89b69c2b068fc378daa952ba7f163c4a11628f55a4df523b3ef60405160405180910390a4505050565b60006001600660008573ffffffffffffffffffffffffffffffffffffffff1673ffffffffffffffffffffffffffffffffffffffff16815260200190815260200160002080549050611baa9190614886565b9050600060076000848152602001908152602001600020549050818114611ca5576000600660008673ffffffffffffffffffffffffffffffffffffffff1673ffffffffffffffffffffffffffffffffffffffff1681526020019081526020016000208381548110611c1e57611c1d613f3b565b5b9060005260206000200154905080600660008773ffffffffffffffffffffffffffffffffffffffff1673ffffffffffffffffffffffffffffffffffffffff1681526020019081526020016000208381548110611c7d57611c7c613f3b565b5b9060005260206000200181905550816007600083815260200190815260200160002081905550505b600660008573ffffffffffffffffffffffffffffffffffffffff1673ffffffffffffffffffffffffffffffffffffffff168152602001908152602001600020805480611cf457611cf36148ba565b5b6001900381819060005260206000200160009055905550505050565b600660008373ffffffffffffffffffffffffffffffffffffffff1673ffffffffffffffffffffffffffffffffffffffff168152602001908152602001600020805490506007600083815260200190815260200160002081905550600660008373ffffffffffffffffffffffffffffffffffffffff1673ffffffffffffffffffffffffffffffffffffffff1681526020019081526020016000208190806001815401808255809150506001900390600052602060002001600090919091909150555050565b611ddd816114e2565b15611e1d576040517f08c379a0000000000000000000000000000000000000000000000000000000008152600401611e1490614935565b60405180910390fd5b611e2682610566565b611e65576040517f08c379a0000000000000000000000000000000000000000000000000000000008152600401611e5c906149a1565b60405180910390fd5b816002600083815260200190815260200160002060006101000a81548173ffffffffffffffffffffffffffffffffffffffff021916908373ffffffffffffffffffffffffffffffffffffffff160217905550611efe600460008473ffffffffffffffffffffffffffffffffffffffff1673ffffffffffffffffffffffffffffffffffffffff168152602001908152602001600020612a3d565b808273ffffffffffffffffffffffffffffffffffffffff163373ffffffffffffffffffffffffffffffffffffffff167fddf252ad1be2c89b69c2b068fc378daa952ba7f163c4a11628f55a4df523b3ef60405160405180910390a45050565b6008805490506009600083815260200190815260200160002081905550600881908060018154018082558091505060019003906000526020600020016000909190919091505550565b606060008203611fed576040518060400160405280600181526020017f30000000000000000000000000000000000000000000000000000000000000008152509050612110565b600082905060005b6000821461201f57808061200890614323565b915050600a8261201891906149f0565b9150611ff5565b60008167ffffffffffffffff81111561203b5761203a61369e565b5b6040519080825280601f01601f19166020018201604052801561206d5781602001600182028036833780820191505090505b509050600060018361207f9190614886565b90505b6000861461210857600a866120979190614a21565b60306120a3919061472e565b60f81b8282806120b290614a52565b9350815181106120c5576120c4613f3b565b5b60200101907effffffffffffffffffffffffffffffffffffffffffffffffffffffffffffff1916908160001a905350600a8661210191906149f0565b9550612082565b819450505050505b919050565b60606121518383604051806020016040528060008152506040518060200160405280600081525060405180602001604052806000815250612a5c565b905092915050565b6000808273ffffffffffffffffffffffffffffffffffffffff163b119050919050565b6121846131db565b60405180604001604052807f1efbc4ac3b1ca42d72006ae582b09f55d4a70083e564f7febb52ef342d82651f81526020017f0490b69dc60007b85dab2e13eece00993577ef703c1478d84b0b3104f894b5018152508160000181905250604051806040016040528060405180604001604052807f0c6f0549fb2d5fbcde5f871a8141044ee15a0a99cbb9723d6f60b7b2d175e53481526020017f191fd1eab49e75b20afdb27c0643f091b889805a6001ca4a80ec94b81c6b6bf0815250815260200160405180604001604052807f04e97ce5deb5d21aa859a2a569914430c8697395f15a5200b6bf2b2fb6cf87a081526020017f08f336bd3ed9fc65eac829bee8b8235c7bf96ec6db77a50bc51e4266e58cb6d58152508152508160200181905250604051806040016040528060405180604001604052807f097aafa2346ae9d1a958b043212603d998ae6546dfabbca5cd3c5e136690c2eb81526020017f067fc2f551320557c5f07f90f67c975ac27ee61808ed447f545e1c436e2b85dc815250815260200160405180604001604052807f1a42ad4143168dd59d07f75ae48b31b1db9de90547ee3b651aa8814b60b7d7eb81526020017f2751bc3349156b98585fbf0a0d4cc353047b719d16197acf74451990492d21bc8152508152508160400181905250604051806040016040528060405180604001604052807f127ed10fba5934cd145fd535baa09edbc06082a68c04a624acd151529d77952381526020017f2ef83a42f6169d0351dcc57aee6bca55070fb976eedf1c8eae2900a082e03f84815250815260200160405180604001604052807f2068900acf908849b3982878f56e3182e527b28ae3eeabc79106440ca15a199581526020017f1f63405a19162f5ad3e06a8523d406128cec285e8887a71ecb825542a1d716f18152508152508160600181905250600267ffffffffffffffff81111561244b5761244a61369e565b5b60405190808252806020026020018201604052801561248457816020015b612471613222565b8152602001906001900390816124695790505b50816080018190525060405180604001604052807f275f7cea18a994a34ac0a0b86b956e42a75d9f6c1bb3ff17c550f9ffb7742a5781526020017f26258a5d3f52c28f3f9e9d2a852b6fe43e14769874534f00b30c1b3fec26bacd81525081608001516000815181106124fa576124f9613f3b565b5b602002602001018190525060405180604001604052807f0dc91177ac33fd6f7edc26bcdc57f76ce1ce31509b33f59c801de0f237b5cbca81526020017f2629bd830ffc5cc5f94ed112ad328f446a058aecfa9be23cc35a2e2371496a8d815250816080015160018151811061257257612571613f3b565b5b602002602001018190525090565b612588613222565b61259061323c565b8360000151816000600381106125a9576125a8613f3b565b5b6020020181815250508360200151816001600381106125cb576125ca613f3b565b5b60200201818152505082816002600381106125e9576125e8613f3b565b5b602002018181525050600060608360808460076107d05a03fa9050806000810361260f57fe5b508061261a57600080fd5b505092915050565b61262a613222565b61263261325e565b83600001518160006004811061264b5761264a613f3b565b5b60200201818152505083602001518160016004811061266d5761266c613f3b565b5b60200201818152505082600001518160026004811061268f5761268e613f3b565b5b6020020181815250508260200151816003600481106126b1576126b0613f3b565b5b602002018181525050600060608360c08460066107d05a03fa905080600081036126d757fe5b50806126e257600080fd5b505092915050565b6126f2613222565b60007f30644e72e131a029b85045b68181585d97816a916871ca8d3c208c16d87cfd4790506000836000015114801561272f575060008360200151145b1561275357604051806040016040528060008152602001600081525091505061278a565b6040518060400160405280846000015181526020018285602001516127789190614a21565b836127839190614886565b8152509150505b919050565b600080600467ffffffffffffffff8111156127ad576127ac61369e565b5b6040519080825280602002602001820160405280156127e657816020015b6127d3613222565b8152602001906001900390816127cb5790505b5090506000600467ffffffffffffffff8111156128065761280561369e565b5b60405190808252806020026020018201604052801561283f57816020015b61282c613280565b8152602001906001900390816128245790505b5090508a8260008151811061285757612856613f3b565b5b6020026020010181905250888260018151811061287757612876613f3b565b5b6020026020010181905250868260028151811061289757612896613f3b565b5b602002602001018190525084826003815181106128b7576128b6613f3b565b5b602002602001018190525089816000815181106128d7576128d6613f3b565b5b602002602001018190525087816001815181106128f7576128f6613f3b565b5b6020026020010181905250858160028151811061291757612916613f3b565b5b6020026020010181905250838160038151811061293757612936613f3b565b5b602002602001018190525061294c8282612dd7565b9250505098975050505050505050565b600073ffffffffffffffffffffffffffffffffffffffff166003600083815260200190815260200160002060009054906101000a900473ffffffffffffffffffffffffffffffffffffffff1673ffffffffffffffffffffffffffffffffffffffff1614612a175760006003600083815260200190815260200160002060006101000a81548173ffffffffffffffffffffffffffffffffffffffff021916908373ffffffffffffffffffffffffffffffffffffffff1602179055505b50565b612a326001826000015461312d90919063ffffffff16565b816000018190555050565b6001816000016000828254612a52919061472e565b9250508190555050565b606060008690506000869050600086905060008690506000869050600081518351855187518951612a8d919061472e565b612a97919061472e565b612aa1919061472e565b612aab919061472e565b67ffffffffffffffff811115612ac457612ac361369e565b5b6040519080825280601f01601f191660200182016040528015612af65781602001600182028036833780820191505090505b5090506000819050600080600090505b8851811015612b8e57888181518110612b2257612b21613f3b565b5b602001015160f81c60f81b838380612b3990614323565b945081518110612b4c57612b4b613f3b565b5b60200101907effffffffffffffffffffffffffffffffffffffffffffffffffffffffffffff1916908160001a9053508080612b8690614323565b915050612b06565b600090505b8751811015612c1b57878181518110612baf57612bae613f3b565b5b602001015160f81c60f81b838380612bc690614323565b945081518110612bd957612bd8613f3b565b5b60200101907effffffffffffffffffffffffffffffffffffffffffffffffffffffffffffff1916908160001a9053508080612c1390614323565b915050612b93565b600090505b8651811015612ca857868181518110612c3c57612c3b613f3b565b5b602001015160f81c60f81b838380612c5390614323565b945081518110612c6657612c65613f3b565b5b60200101907effffffffffffffffffffffffffffffffffffffffffffffffffffffffffffff1916908160001a9053508080612ca090614323565b915050612c20565b600090505b8551811015612d3557858181518110612cc957612cc8613f3b565b5b602001015160f81c60f81b838380612ce090614323565b945081518110612cf357612cf2613f3b565b5b60200101907effffffffffffffffffffffffffffffffffffffffffffffffffffffffffffff1916908160001a9053508080612d2d90614323565b915050612cad565b600090505b8451811015612dc257848181518110612d5657612d55613f3b565b5b602001015160f81c60f81b838380612d6d90614323565b945081518110612d8057612d7f613f3b565b5b60200101907effffffffffffffffffffffffffffffffffffffffffffffffffffffffffffff1916908160001a9053508080612dba90614323565b915050612d3a565b82995050505050505050505095945050505050565b60008151835114612de757600080fd5b6000835190506000600682612dfc9190614a7b565b905060008167ffffffffffffffff811115612e1a57612e1961369e565b5b604051908082528060200260200182016040528015612e485781602001602082028036833780820191505090505b50905060005b838110156130cd57868181518110612e6957612e68613f3b565b5b602002602001015160000151826000600684612e859190614a7b565b612e8f919061472e565b81518110612ea057612e9f613f3b565b5b602002602001018181525050868181518110612ebf57612ebe613f3b565b5b602002602001015160200151826001600684612edb9190614a7b565b612ee5919061472e565b81518110612ef657612ef5613f3b565b5b602002602001018181525050858181518110612f1557612f14613f3b565b5b602002602001015160000151600160028110612f3457612f33613f3b565b5b6020020151826002600684612f499190614a7b565b612f53919061472e565b81518110612f6457612f63613f3b565b5b602002602001018181525050858181518110612f8357612f82613f3b565b5b602002602001015160000151600060028110612fa257612fa1613f3b565b5b6020020151826003600684612fb79190614a7b565b612fc1919061472e565b81518110612fd257612fd1613f3b565b5b602002602001018181525050858181518110612ff157612ff0613f3b565b5b6020026020010151602001516001600281106130105761300f613f3b565b5b60200201518260046006846130259190614a7b565b61302f919061472e565b815181106130405761303f613f3b565b5b60200260200101818152505085818151811061305f5761305e613f3b565b5b60200260200101516020015160006002811061307e5761307d613f3b565b5b60200201518260056006846130939190614a7b565b61309d919061472e565b815181106130ae576130ad613f3b565b5b60200260200101818152505080806130c590614323565b915050612e4e565b506130d66132a6565b6000602082602086026020860160086107d05a03fa905080600081036130f857fe5b508061310357600080fd5b60008260006001811061311957613118613f3b565b5b602002015114159550505050505092915050565b600061316f83836040518060400160405280601e81526020017f536166654d6174683a207375627472616374696f6e206f766572666c6f770000815250613177565b905092915050565b60008383111582906131bf576040517f08c379a00000000000000000000000000000000000000000000000000000000081526004016131b691906135a1565b60405180910390fd5b50600083856131ce9190614886565b9050809150509392505050565b6040518060a001604052806131ee613222565b81526020016131fb613280565b8152602001613208613280565b8152602001613215613280565b8152602001606081525090565b604051806040016040528060008152602001600081525090565b6040518060600160405280600390602082028036833780820191505090505090565b6040518060800160405280600490602082028036833780820191505090505090565b60405180604001604052806132936132c8565b81526020016132a06132c8565b81525090565b6040518060200160405280600190602082028036833780820191505090505090565b6040518060400160405280600290602082028036833780820191505090505090565b6000604051905090565b600080fd5b600080fd5b600073ffffffffffffffffffffffffffffffffffffffff82169050919050565b6000613329826132fe565b9050919050565b6133398161331e565b811461334457600080fd5b50565b60008135905061335681613330565b92915050565b600060208284031215613372576133716132f4565b5b600061338084828501613347565b91505092915050565b60008115159050919050565b61339e81613389565b82525050565b60006020820190506133b96000830184613395565b92915050565b60007fffffffff0000000000000000000000000000000000000000000000000000000082169050919050565b6133f4816133bf565b81146133ff57600080fd5b50565b600081359050613411816133eb565b92915050565b60006020828403121561342d5761342c6132f4565b5b600061343b84828501613402565b91505092915050565b6000819050919050565b61345781613444565b811461346257600080fd5b50565b6000813590506134748161344e565b92915050565b6000602082840312156134905761348f6132f4565b5b600061349e84828501613465565b91505092915050565b6134b08161331e565b82525050565b60006020820190506134cb60008301846134a7565b92915050565b600080604083850312156134e8576134e76132f4565b5b60006134f685828601613347565b925050602061350785828601613465565b9150509250929050565b600081519050919050565b600082825260208201905092915050565b60005b8381101561354b578082015181840152602081019050613530565b60008484015250505050565b6000601f19601f8301169050919050565b600061357382613511565b61357d818561351c565b935061358d81856020860161352d565b61359681613557565b840191505092915050565b600060208201905081810360008301526135bb8184613568565b905092915050565b6135cc81613389565b81146135d757600080fd5b50565b6000813590506135e9816135c3565b92915050565b600060208284031215613605576136046132f4565b5b6000613613848285016135da565b91505092915050565b61362581613444565b82525050565b6000602082019050613640600083018461361c565b92915050565b60008060006060848603121561365f5761365e6132f4565b5b600061366d86828701613347565b935050602061367e86828701613347565b925050604061368f86828701613465565b9150509250925092565b600080fd5b7f4e487b7100000000000000000000000000000000000000000000000000000000600052604160045260246000fd5b6136d682613557565b810181811067ffffffffffffffff821117156136f5576136f461369e565b5b80604052505050565b60006137086132ea565b905061371482826136cd565b919050565b60006040828403121561372f5761372e613699565b5b61373960406136fe565b9050600061374984828501613465565b600083015250602061375d84828501613465565b60208301525092915050565b600080fd5b600067ffffffffffffffff8211156137895761378861369e565b5b602082029050919050565b600080fd5b60006137ac6137a78461376e565b6136fe565b905080602084028301858111156137c6576137c5613794565b5b835b818110156137ef57806137db8882613465565b8452602084019350506020810190506137c8565b5050509392505050565b600082601f83011261380e5761380d613769565b5b600261381b848285613799565b91505092915050565b60006080828403121561383a57613839613699565b5b61384460406136fe565b90506000613854848285016137f9565b6000830152506040613868848285016137f9565b60208301525092915050565b6000610100828403121561388b5761388a613699565b5b61389560606136fe565b905060006138a584828501613719565b60008301525060406138b984828501613824565b60208301525060c06138cd84828501613719565b60408301525092915050565b600067ffffffffffffffff8211156138f4576138f361369e565b5b602082029050919050565b600061391261390d846138d9565b6136fe565b9050806020840283018581111561392c5761392b613794565b5b835b8181101561395557806139418882613465565b84526020840193505060208101905061392e565b5050509392505050565b600082601f83011261397457613973613769565b5b60016139818482856138ff565b91505092915050565b600080600061014084860312156139a4576139a36132f4565b5b60006139b286828701613465565b93505060206139c386828701613874565b9250506101206139d58682870161395f565b9150509250925092565b600080604083850312156139f6576139f56132f4565b5b6000613a0485828601613347565b9250506020613a15858286016135da565b9150509250929050565b600080fd5b600067ffffffffffffffff821115613a3f57613a3e61369e565b5b613a4882613557565b9050602081019050919050565b82818337600083830152505050565b6000613a77613a7284613a24565b6136fe565b905082815260208101848484011115613a9357613a92613a1f565b5b613a9e848285613a55565b509392505050565b600082601f830112613abb57613aba613769565b5b8135613acb848260208601613a64565b91505092915050565b60008060008060808587031215613aee57613aed6132f4565b5b6000613afc87828801613347565b9450506020613b0d87828801613347565b9350506040613b1e87828801613465565b925050606085013567ffffffffffffffff811115613b3f57613b3e6132f9565b5b613b4b87828801613aa6565b91505092959194509250565b60008060408385031215613b6e57613b6d6132f4565b5b6000613b7c85828601613465565b9250506020613b8d85828601613347565b9150509250929050565b60008060408385031215613bae57613bad6132f4565b5b6000613bbc85828601613347565b9250506020613bcd85828601613347565b9150509250929050565b6000819050919050565b6000613bfc613bf7613bf2846132fe565b613bd7565b6132fe565b9050919050565b6000613c0e82613be1565b9050919050565b6000613c2082613c03565b9050919050565b613c3081613c15565b82525050565b6000602082019050613c4b6000830184613c27565b92915050565b6000806101208385031215613c6957613c686132f4565b5b6000613c7785828601613874565b925050610100613c898582860161395f565b9150509250929050565b7f546869732061646472657373206973206f776e6572206f66207468697320746f60008201527f6b656e4964000000000000000000000000000000000000000000000000000000602082015250565b6000613cef60258361351c565b9150613cfa82613c93565b604082019050919050565b60006020820190508181036000830152613d1e81613ce2565b9050919050565b7f6d73672073656e64657220746f20626520746865206f776e6572206f6620746860008201527f6520636f6e7472616374206f72206973417070726f766564466f72416c6c282960208201527f20746f2062652074727565000000000000000000000000000000000000000000604082015250565b6000613da7604b8361351c565b9150613db282613d25565b606082019050919050565b60006020820190508181036000830152613dd681613d9a565b9050919050565b7f4e487b7100000000000000000000000000000000000000000000000000000000600052602260045260246000fd5b60006002820490506001821680613e2457607f821691505b602082108103613e3757613e36613ddd565b5b50919050565b7f4f6e6c79206f776e65722063616e2063616c6c20746869732066756e6374696f60008201527f6e00000000000000000000000000000000000000000000000000000000000000602082015250565b6000613e9960218361351c565b9150613ea482613e3d565b604082019050919050565b60006020820190508181036000830152613ec881613e8c565b9050919050565b7f436f6e747261637420616c726561647920706175736564000000000000000000600082015250565b6000613f0560178361351c565b9150613f1082613ecf565b602082019050919050565b60006020820190508181036000830152613f3481613ef8565b9050919050565b7f4e487b7100000000000000000000000000000000000000000000000000000000600052603260045260246000fd5b613f7381613444565b82525050565b604082016000820151613f8f6000850182613f6a565b506020820151613fa26020850182613f6a565b50505050565b600060029050919050565b600081905092915050565b6000819050919050565b6000613fd48383613f6a565b60208301905092915050565b6000602082019050919050565b613ff681613fa8565b6140008184613fb3565b925061400b82613fbe565b8060005b8381101561403c5781516140238782613fc8565b965061402e83613fe0565b92505060018101905061400f565b505050505050565b60808201600082015161405a6000850182613fed565b50602082015161406d6040850182613fed565b50505050565b6101008201600082015161408a6000850182613f79565b50602082015161409d6040850182614044565b5060408201516140b060c0850182613f79565b50505050565b600060019050919050565b600081905092915050565b6000819050919050565b6000602082019050919050565b6140ec816140b6565b6140f681846140c1565b9250614101826140cc565b8060005b838110156141325781516141198782613fc8565b9650614124836140d6565b925050600181019050614105565b505050505050565b6000610120820190506141506000830185614073565b61415e6101008301846140e3565b9392505050565b600081519050614174816135c3565b92915050565b6000602082840312156141905761418f6132f4565b5b600061419e84828501614165565b91505092915050565b7f46414c53453a2043726561746520612066756e6374696f6e20746f206d696e7460008201527f206e6577204e4654206f6e6c792061667465722074686520736f6c7574696f6e60208201527f20686173206265656e2076657269666965640000000000000000000000000000604082015250565b600061422960528361351c565b9150614234826141a7565b606082019050919050565b600060208201905081810360008301526142588161421c565b9050919050565b6000604082019050614274600083018561361c565b61428160208301846134a7565b9392505050565b7f54686973206973206e6f7420612076616c696420616464726573730000000000600082015250565b60006142be601b8361351c565b91506142c982614288565b602082019050919050565b600060208201905081810360008301526142ed816142b1565b9050919050565b7f4e487b7100000000000000000000000000000000000000000000000000000000600052601160045260246000fd5b600061432e82613444565b91507fffffffffffffffffffffffffffffffffffffffffffffffffffffffffffffffff82036143605761435f6142f4565b5b600182019050919050565b7f5468697320746f6b656e20206e6f742065786973740000000000000000000000600082015250565b60006143a160158361351c565b91506143ac8261436b565b602082019050919050565b600060208201905081810360008301526143d081614394565b9050919050565b60008190508160005260206000209050919050565b60006020601f8301049050919050565b600082821b905092915050565b6000600883026144397fffffffffffffffffffffffffffffffffffffffffffffffffffffffffffffffff826143fc565b61444386836143fc565b95508019841693508086168417925050509392505050565b600061447661447161446c84613444565b613bd7565b613444565b9050919050565b6000819050919050565b6144908361445b565b6144a461449c8261447d565b848454614409565b825550505050565b600090565b6144b96144ac565b6144c4818484614487565b505050565b5b818110156144e8576144dd6000826144b1565b6001810190506144ca565b5050565b601f82111561452d576144fe816143d7565b614507846143ec565b81016020851015614516578190505b61452a614522856143ec565b8301826144c9565b50505b505050565b600082821c905092915050565b600061455060001984600802614532565b1980831691505092915050565b6000614569838361453f565b9150826002028217905092915050565b61458282613511565b67ffffffffffffffff81111561459b5761459a61369e565b5b6145a58254613e0c565b6145b08282856144ec565b600060209050601f8311600181146145e357600084156145d1578287015190505b6145db858261455d565b865550614643565b601f1984166145f1866143d7565b60005b82811015614619578489015182556001820191506020850194506020810190506145f4565b868310156146365784890151614632601f89168261453f565b8355505b6001600288020188555050505b505050505050565b600081519050919050565b600082825260208201905092915050565b60006146728261464b565b61467c8185614656565b935061468c81856020860161352d565b61469581613557565b840191505092915050565b60006080820190506146b560008301876134a7565b6146c260208301866134a7565b6146cf604083018561361c565b81810360608301526146e18184614667565b905095945050505050565b6000815190506146fb816133eb565b92915050565b600060208284031215614717576147166132f4565b5b6000614725848285016146ec565b91505092915050565b600061473982613444565b915061474483613444565b925082820190508082111561475c5761475b6142f4565b5b92915050565b7f61646472657373206973204e4f5420746865206f776e6572206f66207468652060008201527f676976656e20746f6b656e000000000000000000000000000000000000000000602082015250565b60006147be602b8361351c565b91506147c982614762565b604082019050919050565b600060208201905081810360008301526147ed816147b1565b9050919050565b7f746f6b656e206973206265696e67207472616e73666572656420746f204e4f5460008201527f2076616c69642061646472657373000000000000000000000000000000000000602082015250565b6000614850602e8361351c565b915061485b826147f4565b604082019050919050565b6000602082019050818103600083015261487f81614843565b9050919050565b600061489182613444565b915061489c83613444565b92508282039050818111156148b4576148b36142f4565b5b92915050565b7f4e487b7100000000000000000000000000000000000000000000000000000000600052603160045260246000fd5b7f676976656e20746f6b656e496420616c72656164792065786973747300000000600082015250565b600061491f601c8361351c565b915061492a826148e9565b602082019050919050565b6000602082019050818103600083015261494e81614912565b9050919050565b7f676976656e206164647265737320697320696e76616c69640000000000000000600082015250565b600061498b60188361351c565b915061499682614955565b602082019050919050565b600060208201905081810360008301526149ba8161497e565b9050919050565b7f4e487b7100000000000000000000000000000000000000000000000000000000600052601260045260246000fd5b60006149fb82613444565b9150614a0683613444565b925082614a1657614a156149c1565b5b828204905092915050565b6000614a2c82613444565b9150614a3783613444565b925082614a4757614a466149c1565b5b828206905092915050565b6000614a5d82613444565b915060008203614a7057614a6f6142f4565b5b600182039050919050565b6000614a8682613444565b9150614a9183613444565b9250828202614a9f81613444565b91508282048414831517614ab657614ab56142f4565b5b509291505056fea26469706673582212208bede8796f9f21a47b3b9c74b37727a343ae337fb833a2d6d2f52c731d3382dc64736f6c6343000811003368747470733a2f2f73332d75732d776573742d322e616d617a6f6e6177732e636f6d2f756461636974792d626c6f636b636861696e2f63617073746f6e652f",
  "immutableReferences": {},
  "source": "//SPDX-License-Identifier: UNLICENSED\r\npragma solidity ^0.8.17;\r\nimport \"./CustomERC721Token.sol\";\r\nimport \"./Verifier.sol\";\r\n\r\n// TODO define a contract call to the zokrates generated solidity contract <Verifier> or <renamedVerifier>\r\ncontract SquareVerifier is Verifier {\r\n\r\n}\r\n\r\n// TODO define another contract named SolnSquareVerifier that inherits from your ERC721Mintable class\r\ncontract SolnSquareVerifier is CustomERC721Token, SquareVerifier {\r\n    SquareVerifier public _squareVerifier;\r\n\r\n    constructor(address verifierAddress) {\r\n        _squareVerifier = SquareVerifier(verifierAddress);\r\n    }\r\n\r\n    // TODO define a solutions struct that can hold an index & an address\r\n    struct Solution {\r\n        uint256 _index;\r\n        address _address;\r\n    }\r\n\r\n    // TODO define an array of the above struct\r\n    Solution[] solutionArray;\r\n\r\n    // TODO define a mapping to store unique solutions submitted\r\n    mapping(bytes32 => Solution) solutions;\r\n\r\n    // TODO Create an event to emit when a solution is added\r\n    event AddSolution(uint256 index, address to);\r\n\r\n    // TODO Create a function to add the solutions to the array and emit the event\r\n    function addSolutions(\r\n        uint256 _index,\r\n        address _to // bytes32 _key\r\n    ) public {\r\n        Solution memory solution = Solution(_index, _to);\r\n        solutionArray.push(solution);\r\n        // solutions[_key] = solution;\r\n\r\n        emit AddSolution(_index, _to);\r\n    }\r\n\r\n    // TODO Create a function to mint new NFT only after the solution has been verified\r\n    function mintNewNFT(\r\n        uint256 Id,\r\n        Proof memory proof,\r\n        uint256[1] memory inputs\r\n    ) public returns (bool) {\r\n        //  - make sure the solution is unique (has not been used before)\r\n        require(\r\n            _squareVerifier.verifyTx(proof, inputs),\r\n            \"FALSE: Create a function to mint new NFT only after the solution has been verified\"\r\n        );\r\n        //  - make sure you handle metadata as well as tokenSuplly\r\n        // bytes32 key = generateKey(proof.a, proof.b, proof.c, inputs);\r\n        addSolutions(Id, msg.sender);\r\n        return mint(msg.sender, Id);\r\n    }\r\n}\r\n",
  "sourcePath": "C:\\Users\\ACER\\Desktop\\Capstone\\Capstone-Real-Estate-Marketplace\\contracts\\SolnSquareVerifier.sol",
  "compiler": {
    "name": "solc",
    "version": "0.8.17+commit.8df45f5f.Emscripten.clang"
  },
  "schemaVersion": "3.4.7",
  "updatedAt": "2022-09-12T20:31:19.146Z",
  "devdoc": {
    "kind": "dev",
    "methods": {
      "isApprovedForAll(address,address)": {
        "details": "Tells whether an operator is approved by a given owner",
        "params": {
          "operator": "operator address which you want to query the approval of",
          "owner": "owner address which you want to query the approval of"
        },
        "returns": {
          "_0": "bool whether the given operator is approved by the given owner"
        }
      },
      "setApprovalForAll(address,bool)": {
        "details": "Sets or unsets the approval of a given operator An operator is allowed to transfer all tokens of the sender on their behalf",
        "params": {
          "approved": "representing the status of the approval to be set",
          "to": "operator address to set the approval"
        }
      },
      "supportsInterface(bytes4)": {
        "details": "implement supportsInterface(bytes4) using a lookup table"
      },
      "tokenByIndex(uint256)": {
        "details": "Gets the token ID at a given index of all the tokens in this contract Reverts if the index is greater or equal to the total number of tokens",
        "params": {
          "index": "uint256 representing the index to be accessed of the tokens list"
        },
        "returns": {
          "_0": "uint256 token ID at the given index of the tokens list"
        }
      },
      "tokenOfOwnerByIndex(address,uint256)": {
        "details": "Gets the token ID at a given index of the tokens list of the requested owner",
        "params": {
          "index": "uint256 representing the index to be accessed of the requested tokens list",
          "owner": "address owning the tokens list to be accessed"
        },
        "returns": {
          "_0": "uint256 token ID at the given index of the tokens list owned by the requested address"
        }
      },
      "totalSupply()": {
        "details": "Gets the total amount of tokens stored by the contract",
        "returns": {
          "_0": "uint256 representing the total amount of tokens"
        }
      }
    },
    "version": 1
  },
  "userdoc": {
    "kind": "user",
    "methods": {},
    "version": 1
  }
}